:100000000C942A000C9434000C9434000C943400AA
:100010000C9434000C9434000C9434000C94340090
:100020000C9434000C9434000C9434000C94340080
:100030000C9434000C9434000C9434000C94340070
:100040000C9434000C9434000C9434000C94340060
:100050000C94340011241FBECFE5D8E0DEBFCDBF25
:100060000E949B000C9420010C94000094B39D7F8F
:1000700094BB94B39E7F94BB95B3926095BB95B3AC
:10008000916095BB282F30E040E050E060E072E1E5
:100090008AE790E00E94FE00DA01C9014097A109B9
:1000A000B109B695A7959795879580B9089596B7A4
:1000B000946A96BF96B79F7D96BF06B607FEFDCFA2
:1000C00083B986B7846886BF06B607FEFDCF81B1C7
:1000D000887F089583B986B7846886BF06B607FE11
:1000E000FDCF81B1887F0895FC0186B7262F21704E
:1000F00030E0002436952795079436952795079488
:10010000322F202D282B246826BF06B607FEFDCFF0
:1001100096B79F7B96BF309729F083B1808381B1DA
:10012000887F08958FEF089586B7846986BF06B6E5
:1001300004FCFDCF0895CF93DF9300D01F92CDB77D
:10014000DEB78FEF87BB8ABB81BB19821A821B8205
:1001500084E60E94360080ED0E945700883109F045
:1001600045C087E00E946A00883209F03FC080E104
:100170000E946A008832D1F50E94940080ED0E94AE
:100180005700883199F580E00E946A00883271F545
:100190000E94940081ED0E945700803439F561E09F
:1001A000CE0101960E947400803501F561E0CE0118
:1001B00002960E9474008035C9F460E0CE01039677
:1001C0000E947400883591F40E949400898188BB54
:1001D0008A818BBB8B8182BB2FEF89E698E121500E
:1001E00080409040E1F700C00000C8CF80E090E080
:1001F0000F900F900F90DF91CF910895A1E21A2EEA
:10020000AA1BBB1BFD010DC0AA1FBB1FEE1FFF1FBA
:10021000A217B307E407F50720F0A21BB30BE40B0A
:10022000F50B661F771F881F991F1A9469F7609551
:100230007095809590959B01AC01BD01CF0108950B
:04024000F894FFCF60
:00000001FF
